:020000040000FA
:10000000A8260020C10000008D220000C11A0000B7
:10001000FFFFFFFFFFFFFFFFFFFFFFFFFFFFFFFFF0
:10002000FFFFFFFFFFFFFFFFFFFFFFFF3D2400007B
:10003000FFFFFFFFFFFFFFFF29230000D92400007F
:10004000350100003501000035010000D515000024
:1000500035010000350100003501000035010000C8
:1000600035010000350100003501000035010000B8
:1000700035010000350100003501000035010000A8
:100080003501000035010000350100003501000098
:100090003501000035010000350100006D2600002B
:1000A000D5260000350100003501000035010000B3
:1000B0003501000035010000350100003501000068
:1000C0001D4880471D4880471D4800471D4801695D
:1000D000002908D14169002905D18169002902D18F
:1000E000C169002909D01848C1680901090D002912
:1000F0000ED005290CD006290AD0BFF34F8F134824
:100100001349016013491248C860BFF34F8FFEE7DF
:100110000E4801680E48884200D070470E480F49CB
:1001200001600A480E4901607047FEE7FEE7FEE7FE
:10013000FEE7FEE7FEE70000CD00000035250000E9
:100140006501000000030840800108400000002015
:100150000400FA0500ED00E0008108400100000005
:10016000000000000348854600F02EFC00480047D0
:100170000D360000A826002030B50B4601460020B1
:100180002022012409E00D46D5409D4205D31D469D
:100190009540491B2546954040191546521E002D95
:1001A000F1DC30BD70B500242546002801DA0124B9
:1001B0004042002901DA01254942FFF7DDFFAC4248
:1001C00000D04042002C00D0494270BDD2B201E0C4
:1001D0000270401C491EFBD270470022F6E710B5A2
:1001E00013460A4604461946FFF7F0FF204610BDA5
:1001F00030B505462A460B4610781C78521C5B1C0D
:10020000002801D0A042F7D0002C03D0002802D053
:100210006D1CEFE7284630BD10B5044605E00B78AD
:100220000370401C002B00D0491C521EF7D2204600
:1002300010BD421C0178401C0029FBD1801A704778
:1002400003460A780270401C491C002AF9D118465E
:10025000704770B5064602F053FC046805460A2252
:100260000021304600F070F92C6070BDF8B50246F0
:100270004A40D40F42004B0052085B089A4202D217
:100280000246084611464A0023D0C30D4A00DDB29B
:10029000120EAD1A202D35DA49020126490AF6055B
:1002A0008A19002C00D0524220214F1B1146B94020
:1002B0002A411018C20D9A4221D0002C17D0012DCE
:1002C00008DCDA05801AD20F8019D207DBB200F001
:1002D0007BF9F8BDDA05801A012340001B06C0181F
:1002E00080185A428018CA0F1043490007E0490895
:1002F000C2071143DA05801A80194008801800F0FF
:100300005BF9F8BD61000122511A001BF7E70122D9
:10031000D2075140AAE70122D2075040A6E770B5A4
:1003200002464A40D50F40004A00ED0740085208F7
:10033000002814D0002A12D0C40DD30D4102012090
:10034000C0055202490A520AE41A091812187D34EB
:10035000914201D3641C00E04900002C01DA002026
:1003600070BD0023914201D3891A0343400849001C
:100370000028F7D100290AD0914202D10121C907F2
:1003800005E0914201D2012101E00121C943E005CC
:10039000C018401900F010F970BDC217C10F5040CD
:1003A00010B54018CA079623002100F00DF910BDC2
:1003B000C20F410040020123400ADB05D207090EAB
:1003C000C0187F2901DA00207047962903DC9623A4
:1003D000591AC84001E096398840002AF4D04042BA
:1003E0007047C20FD207400040080BD0C10D072351
:1003F000DB01C91840020905400A1143C208400741
:1004000011437047002001467047CB0FDB074900BE
:1004100010B5490802460A4307D00A0D072409030C
:10042000E401090B121B002A01DC002010BDC900E9
:10043000440F0C43C100E018D205801800F0BCF84E
:1004400010BDF0B51FB40646002082B0054640241A
:10045000019100901BE0019922460F46304600F0C2
:10046000D5FA049A059B801A994110D31046194673
:10047000224600F0BBFA361A8F410197224601202E
:100480000021009F00F0B2FA38184D41009020463C
:10049000641E0028DFDC019B00982946324607B025
:1004A000F0BD00000FB400B589B00CA900910B9904
:1004B0000023CB60204B214A06930792042201922D
:1004C0001F4A02921F4A089202466B46002000F023
:1004D0004AFB09B008BC04B0184770B586B00646A0
:1004E0000020C0430190002015460C460091029167
:1004F00004903246694604A8FFF7D4FF03460498E7
:100500002118002D05D0002801D00A4600E022461F
:100510002A6000280DD0002B02DD0098884208D008
:10052000081B0190009432466946029404A8FFF724
:10053000B9FF06B070BD0000BD0D0000DD0D00006C
:10054000FFFFFF7F5D0A0000F7B5009C0F46002605
:100550002578641C002D05D000F07CFA0068405D11
:10056000C007F5D12B2D02D02D2D18D0641E394691
:100570002046029A00F044FC002F04D03968A142C2
:1005800001D1009939607105022400290BDA40423B
:10059000002803DD02F0B4FA0460A007FEBD0120CC
:1005A00080020643E3E70028F8DA02F0A9FA0460C3
:1005B0000048FEBDFFFFFF7F002904DA401C490010
:1005C00001D140084000704770B40024050C05D1EB
:1005D0001024000402D1002921D01124050E01D1DC
:1005E00000020834050F01D10001241D850F01D13F
:1005F0008000A41C002801DB4000641C002908D0F6
:1006000020252E1B0D46F540A14000D00121294395
:10061000084301061B1B000ADB1D02D5002070BC2D
:100620007047DB05181880180029F8DA401C4900CB
:10063000F5D170BC4008400070470000F0B5074697
:100640000846584087B0C00F049048000E46590035
:1006500040084908BC1A884105D2384631461E4632
:1006600017460B4602465800400810434CD0300D48
:10067000039040055900400D490D0590401A029025
:10068000402872DA18030121000B09050843019084
:1006900004980092002805D0019952420020884118
:1006A00000920190029840210A1A0199009800F0E6
:1006B0009DF905460C466B4607CB00F0B8F9C0190A
:1006C0007141039A0E0D0023D71756401A467A40FF
:1006D000164344D0049A002A2DD0029A012A039A84
:1006E00015DC1205C01A914101263605001C714126
:1006F000D20F059ED2070093019202962A46234606
:1007000000F0DEFB07B0F0BD38463146FAE71605CB
:10071000224A0F46B218C01AB74101210905001C30
:100720004F4100187F41114618187941E20F1043DC
:100730006D19644113E0E2076D0815436408C207B0
:100740001443039A01261205C01A91413605001C74
:100750007141CE07400830434908C01851412A462C
:10076000234600F0A0FBCDE7FFE7049801224000FC
:10077000C117121A00238B4104983146C417381A46
:10078000A141EEE730B40124E407634030BC55E7F3
:1007900030B40124E407614030BC4FE70000E0FFC3
:1007A000F0B51FB488B00B99099800244840099906
:1007B000C00F490049080991C0070B9900904900F2
:1007C00049080B9109990898A64608431CD00B9933
:1007D0000A98084318D0099801244000420D4800A7
:1007E000410D099824050003000B204309900B9844
:1007F0000003000B20430B9050181C4940180022A6
:1008000001901446104605E0002001460DB0F0BDF1
:10081000032801DA034600E003239C46C11A0AAE0E
:100820000AE05F0008ADED5B4F00F75B7D430027FA
:10083000AA187C41491C5B1E6145F2DD410004ABF6
:100840005A522104120C0A43240C401C0828DFDBF6
:10085000019802900099704601910090059B049ABE
:100860000799069800F02CFBD0E700000DFCFFFF75
:10087000F0B50C465C4085B0E40FE40703944C00EF
:10088000002664085900944649080246029622430D
:1008900021D062460A431ED06200570D4A000E0363
:1008A0002303550D012402462C492405781B1B0BFC
:1008B000360B401823432643614600901C46501ACD
:1008C000B44103D30098401C009002E092180098B5
:1008D0005B41002803DA0020014605B0F0BD00208E
:1008E000012109050746864611E064461D46141B92
:1008F000B54106D36546521BB341744607430C43CA
:10090000A646CD0740084908284392185B41054692
:100910000D43EAD11046184313D0604619465040A3
:100920007140084306D06046101AB34106D2012236
:10093000002306E000220123DB0702E00122D2436C
:100940005310009874460105381C6141029C039DB8
:100950000019694100F0A7FABFE70000FD0300009D
:100960004A0009030123090B1B0519430A4B10B563
:10097000520D9A4202DA0020014610BD064B343374
:100980009A4203DC9A1A00F041F810BD034BD218CA
:1009900000F02CF810BD0000FF030000CDFBFFFFAE
:1009A00010B5002904DB0124E40740428C412146B4
:1009B000002B04DB1C460123DB075242A341994272
:1009C00000D1904210BD0000064C0125064E05E006
:1009D000E36807CC2B430C3C98471034B442F7D360
:1009E000FFF7C4FB603C0000803C000010B5202AEB
:1009F00004DB0146203A9140002010BD91402023A5
:100A00009C1A0346E3401943904010BD10B5202ABC
:100A100004DB0846203AD040002110BD0B46D340ED
:100A2000D0402024A21A91400843194610BD10B5A9
:100A3000202A06DBCB170846203A1041C1170B438A
:100A400006E00B461341D0402024A21A91400843EF
:100A5000194610BD00487047703B000010B50446B1
:100A6000FFF7F8FF0068005DC007C00F10BD000071
:100A7000FFB5087885B01546FF2805D0491C2D28FC
:100A800004D00022002407E000240BE00122F9E753
:100A90000A235C430419491C0878FF28F8D1002A6E
:100AA00000D06442002001902A7801462D2A01D00E
:100AB0002B2A04D16D1C2D2A0DD000220192002674
:100AC0002F78FF2F09D00A2200236D1C00F04AFA6C
:100AD00038187141F4E70122F0E7089AA21803924E
:100AE00002460A430DD00024B24AB14D2646009278
:100AF00000F084FA049003980291002807DA474234
:100B00001AE0002105980A4606C009B0F0BD074664
:100B100012E0F80707D022462B4630460099FFF72F
:100B20003FFE0646009122462B4610461946FFF727
:100B300037FE04460D467F10002FEAD10398009B34
:100B4000002802990498324602DAFFF791FE01E08C
:100B5000FFF726FE019A002A02D00122D207514057
:100B6000059A03C2D1E7FFB591B000200990002596
:100B7000ED432E209E685C681F460190B9696D1C8C
:100B8000129888470090396A88470028F6D1009863
:100B9000401C0AD00D20C0018443002E12DD0098B5
:100BA0002B2809D02D280DD103E00020C04315B01B
:100BB000F0BD012080020443B9696D1C129888477A
:100BC000761E009003A9600501D52D2000E02B20A2
:100BD0006A461073491C0CA80F9102900AE0B9698B
:100BE0006D1C12988847009001204002044313981E
:100BF000761E0560002E02DD00983028EFD00199A6
:100C00000098884246D18020044308E00998401E9D
:100C100009900120400204431399681C0860B969D7
:100C20006D1C761E1298884700903028EED031E077
:100C30000199884205D1200603D480200443761E02
:100C40001EE0009802F028F8002826D0012040027B
:100C5000044307A90F980331761E88420BD20098EF
:100C60000F99303808700F98401C0F90200607D558
:100C70000998401E03E0200602D40998401C099000
:100C8000A00502D51399681C0860B9696D1C1298FB
:100C900088470090002ECBDC59E0002E57DD0098ED
:100CA000652801D0452852D1A00550D50320000267
:100CB0008443B9696D1C761E129888470090002EF7
:100CC0000CDD2B2804D02D2808D1FF20013004434F
:100CD000B9696D1C12988847761E0090E00501D511
:100CE0002D2100E02B21029801700298401C0290F7
:100CF000019025E00120400204430EA90298013131
:100D0000761E88420ED20098029930380006000EF6
:100D1000087003D10299019881420AD90298401CB7
:100D2000029006E0E00501D5234801E02248404258
:100D30000990B9696D1C1298884700901398056056
:100D4000002E04DD009801F0A7FF0028D2D1F96938
:100D5000129888470F99FF200870029903AA08701B
:100D600000200A900B900CA90AA8099BFFF780FEAF
:100D7000A00502D40120C04319E72420044209D071
:100D8000E00713D138680B9A0A99031D3B6000688D
:100D900006C00BE00B990A98FFF737FB0146E00706
:100DA00004D13868021D3A60006801602846FEE6FA
:100DB000000024400000F03FF1D8FFFF4268002A05
:100DC00008D001680B78491C002B03D0521E06C0C6
:100DD000184670470121C160881E70474268002A8A
:100DE0000BD0C3680168002B07D183688B4204D005
:100DF000491E521C06C0002070470020C0437047A7
:100E0000F7B582B0029C00272078641C1546019734
:100E1000302802D0002D15D015E020780127641C61
:100E2000782804D0582802D0002D09D00BE0002DDE
:100E300001D0102D07D1002710252078641C02E076
:100E4000082500E00A250026009610E000990127F9
:100E500069430818020C294680B2714300908E182D
:100E60003804864201D3012001902078641C294671
:100E700000F0B5F80028E9DA0398002805D0002F23
:100E800001D0641E00E0029C04600198002806D096
:100E900001F036FE02210160C81E05B0F0BD0099C8
:100EA00030040843F9E710B5002B08DA0024401C91
:100EB000614192185B411A4301D14008400010BDC6
:100EC000F0B51FB482B005460C0003D0084601F00F
:100ED000F3FD02E001F0F0FD2030024600902146D3
:100EE0002846FFF783FD049B059A04460F461843E6
:100EF0001143084314D0184610431BD000984021DA
:100F00000A1A18460599FFF781FD05460E46009A14
:100F100005990498FFF76AFD084305D0012004E015
:100F20002046394607B0F0BD0020C11705430E43E7
:100F30002C43374300990E986305401A7905E40A5B
:100F400000220C43FD0A0A3002D500200146E9E7E1
:100F50000105101969410C9C0D9D00196941FFF7AD
:100F6000A2FFDFE7F0B51FB486B00020009001902B
:100F700002900698069980B204900798090C020422
:100F80000014114307900027089D099806913E46DA
:100F90003C4603900398A9B20204000C0390049805
:100FA0002D0C1543484300212246FFF71FFDC719AA
:100FB000714110340E46402CECDB3846029AFFF7A4
:100FC00015FD009A019B80180090594102980191EB
:100FD000103002904028CCDB00980BB0F0BD3A28CE
:100FE00000D23038202302469A43412A01D31046CA
:100FF0003738884201D30020C04370470EB5054AF8
:1010000002920022009213460192FFF759FF03B0AB
:1010100000BD00003304000010B50022072802D9EB
:1010200001220838C0B29300054A9A18136880005C
:101030000F248440A34381401943116010BD000078
:1010400000200240F0B596460A461349C0004618F3
:1010500000230025FF2098402C46104216D0002087
:10106000012199408C461146C1406746394206D05D
:1010700087000F21B9400D437146B9400C43401C15
:101080000828F0D33068A843204330600833361D69
:10109000082BDEDDF0BD000020200240FEB5494DEA
:1010A000002428792F46293700280DD0291D3846DD
:1010B000FFF79EF8002807D02C716A6A002A03D037
:1010C00039460020AC6190473FA13846FFF790F8C1
:1010D000002805D06A6A002A02D0394602209047CB
:1010E0003BA13846FFF784F8012600284ED03B4844
:1010F0000090FFF79EF801460098FFF76EF839461A
:101100000098FFF79DF8354B0422243B03210098FB
:1011100002F038FA314832A12438FFF769F82F4D30
:10112000243D002801D0AC7730E02C482DA1243894
:10113000FFF75EF8002829D0284BAE771A3B08222B
:1011400007210193009802F01DFA25A10198FFF7ED
:101150004FF8002805D124A10198FFF749F800288D
:1011600001D0EC7706E01FA10198FFF741F80028B5
:1011700000D0EE77194B0C22103B0B210193009805
:1011800002F000FA0198FFF764F8286218A13846C7
:10119000FFF72EF8002801D01748867017A13846AF
:1011A000FFF726F8002805D0064816492030C07CF5
:1011B00030380860012189023846FFF70EF81248DE
:1011C000C462FEBD940800204552524F52000000F8
:1011D000227374436865636B22000000E80C0020F2
:1011E0006F6666006F6E00006E756C6C000000002C
:1011F000504220444F4E45001C0000202B434552D6
:1012000045473A0014000020940C002004220029D5
:10121000016801D0114300E0914301607047816093
:10122000704710B50B2001210022400489030123DF
:1012300000F07CF810BD000003498968014201D02C
:1012400001207047002070470080084070B5184D9D
:101250000446686B4607760F00F02EF815492060AB
:10126000330001F040FC081405070714140E111494
:10127000606000E06160296A6068052909D340095F
:1012800008E00120C003F3E77D200002F0E7002022
:10129000EEE7C840A060A96A4903490F072902D0B8
:1012A000C840E06070BD0321FEF766FFF9E700006B
:1012B0000080084000127A000D4A1068D069C10F02
:1012C0005068400AC007C00F11D00A489369DB007C
:1012D000DB0FD84000290AD19169C90D0907090F10
:1012E00000D1102192695202920F4843D0407047BA
:1012F0000080084000127A001FB541090A4A89009F
:101300008A1800212E2800D10221C006C00E1268C2
:10131000032383401A40C24054186846FFF796FFE3
:10132000029804B0E04010BD38800840F0B5084F86
:101330007C6AFD6A3E6B84438D439643002B02D04A
:1013400004430D4316437C62FD623E63F0BD000022
:10135000008008404209084B920010B5D2182E2890
:1013600000D1891EC006C00E03248440136881404A
:10137000A3430B43136010BD3880084010B50D49DE
:101380000D4800228B79012BFCD18A710378012B47
:101390000AD00378022B07D00378002BF2D107483C
:1013A00001F042F9002010BD00780128FBD0022096
:1013B00010BD00007800002028000020808D5B0018
:1013C000F8B5012107200022890340040123FFF71B
:1013D000ADFF0122140221460320FFF733FE012254
:1013E00021460020FFF72EFE012202210320FFF7F5
:1013F00029FE012221461046FFF724FE012280210A
:101400001046FFF71FFE0122550329460220FFF771
:1014100019FE2E4E00222146304600F0D1F92C4F05
:1014200000222146384600F0CBF900220221304646
:1014300000F0C6F900222146264800F0C1F900223A
:101440008021244800F0BCF900222946224800F0FF
:10145000B7F901222146304600F042F90122214627
:10146000384600F03DF901220221304600F038F9FB
:1014700001222146174800F033F901228021154846
:1014800000F02EF901222946134800F029F9002224
:101490002146304600F0B0F900222146384600F0DF
:1014A000ABF900220221304600F0A6F900222146C5
:1014B000084800F0A1F900228021064800F09CF9BC
:1014C00000222946044800F097F9F8BD00600B405F
:1014D00000000B4000200B4000400B4010B50121E4
:1014E00089020C48FEF779FE0B4800680B49C008DA
:1014F000401E88420CD80A4948610A480722C3693D
:101500001B021B0A4C042343C361002088610A614B
:1015100010BD0000BD08002054000020FFFFFF00A8
:1015200000E000E004ED00E030B58DB00446442951
:1015300028D0014602222448FEF76EFE2248FEF71C
:1015400088FE214DC01DE860182801DB1838E860CE
:1015500002461EA11C4801F09BFAEA680A2A03D23F
:101560001BA1194801F094FA17480222A11C10305F
:10157000FEF752FE14480222211D1A30FEF74CFEDF
:101580000DB030BD014602226846FEF745FE6846B2
:10159000FEF75FFE0C4D022280356862A11C684692
:1015A000FEF73AFE6846FEF754FEA8620222211DAD
:1015B0006846FEF731FE6846FEF74BFE7D210901C5
:1015C0004018E862DCE70000E0210020256400000C
:1015D0003025640010B50A2000F050F800280ED025
:1015E000002000F06DF8002211460A2000F052F8A9
:1015F0000A2000F00FF8002000F046FA10BD00F0BD
:10160000DBFE8007FAD501200021400200F00AFF2E
:1016100010BD00000121814002488161BFF34F8F5E
:10162000704700004040024070B50020032189034C
:1016300001230246FFF77AFE01229402214602208E
:10164000FFF700FD0B4D00222146284600F048F828
:1016500000222146284600F0B3F801222146284600
:1016600000F0A6F802210A20FFF7D6FC0249082064
:10167000086070BD00400B4000E100E0044989694A
:1016800001228240114201D00120704700207047A2
:101690004040024010B50123084C8340012A02D08B
:1016A0002069984306E06069002905D0184360610D
:1016B00020691843206110BD9843F8E7404002407C
:1016C00005490128086903D04000400808617047B7
:1016D0000122D2071043F9E740400240816270477F
:1016E000002A026801D00A4300E08A430260704782
:1016F000F0B5002425462346CE0706D05E001746E7
:10170000B7403C430327B7403D4349085B1C102BBF
:10171000F2D34169A9434161416921434161F0BD6F
:10172000F8B50122140321461046FFF78BFC012275
:10173000950229460220FFF785FC04210122084674
:10174000FFF780FC174E002221463046FFF7C8FF06
:10175000154F002229463846FFF7C2FF0022042118
:101760001248FFF7BDFF01222146304600F028F85D
:1017700000222946384600F023F8002204210B48B5
:1017800000F01EF801222146304600F011F8012237
:101790002946384600F00CF801220421034800F0E5
:1017A00007F8F8BD00200B4000400B4000800B40C4
:1017B000002A426801D00A4300E08A434260704731
:1017C000002A08D0012A09D082688A438260C26850
:1017D0008A43C260704782680A43F7E7C2680A43D7
:1017E000C26082688A4382607047C069084000D046
:1017F0000120704741627047002A01D04162704762
:1018000081627047F0B589B06DA16F48FEF7F0FCBA
:101810006E4C00287ED06E48FEF70BFD01466C48EA
:10182000FEF7DBFC68496A48FEF70AFD694B0222B5
:101830000121674801F052FE674B042203216448EE
:1018400001F04CFE654B06220521614801F046FE81
:10185000634B082207215E4801F040FE614B0A22DB
:1018600009215B4801F03AFE54215A48FFF75CFE1B
:101870005D480090034602460A3B1A3A5BA1554870
:1018800001F006F9544801F0B0FDFEF7BEFD074631
:10189000FEF78EFD6421FEF785FC574E0546642158
:1018A00030604843FEF779FD3946FEF734FD534971
:1018B000FEF735FD07462846FEF76FFD3946FEF771
:1018C000D5FCE060454801F090FDFEF79EFD07461F
:1018D000FEF76EFD6421FEF765FC0546642170602D
:1018E0004843FEF75AFD3946FEF715FD4349FEF71A
:1018F00016FD06462846FEF750FD3146FEF7B6FCBB
:10190000A060374801F071FDFEF77FFDA061442122
:10191000344800E04AE0FFF707FE33486630C16A0A
:101920000091836A426A36A12E4801F0B1F8374827
:101930000078012802D0022802D003E0002000E055
:101940000120E062A069FEF74CFD01910090A068C3
:10195000FEF747FD05460E46E068FEF742FDA76A22
:101960000A461C491F4B0691089707936F46019B37
:10197000009965C70AC726491548E26A01F088F848
:10198000E0684000000E0AD0A0684000000E06D0BB
:101990000120204920710A68002A00D108600A4805
:1019A000FEF747FC01460848FEF717FC01214902F3
:1019B0000548FEF712FC0020206009B0F0BD0000D1
:1019C00024474E524D430000240E002024100020D6
:1019D0005410002010230020102400204224002056
:1019E0007424002090230020FA21002025733A253A
:1019F000733A2573000000006C0000200000704264
:101A000025642F25642F25640000000002000020BB
:101A1000743B00004C000020F8B5054613481349FC
:101A2000465D680010310C5A08460D38475DB0001D
:101A30000C3108580090304600F0FEFF3A4621462F
:101A40003046FFF7FFFA284600F012F8214602223E
:101A50000098FFF7B5FE214601220098FFF748FEE7
:101A6000214601220098FFF73BFEF8BDA83A00008E
:101A7000044A4100515A103A105C80001C32105840
:101A800041627047B83A0000044A4100515A103A86
:101A9000105C80001C32105881627047B83A000018
:101AA0000649095C8A0005491C3189580A6A034BBA
:101AB00040001033185A42400A627047A83A0000AA
:101AC000024801680029FCD0704700005000002047
:101AD000C068884201D10120704700207047082269
:101AE0000029016801D0114300E091430160704773
:101AF0003EB500242246114901231046FFF716FC8B
:101B000001210722C9030120FFF79CFA07220121C6
:101B10000220FFF797FA69460C704C708C700A200F
:101B2000088107480190CC70064C204600F012F85E
:101B300001212046FFF7D3FF3EBD00000240000018
:101B400040420F00009004400168022211430160EE
:101B500070470000FEB504460D4608784978002716
:101B60000843A97822683E4685239A4311430843D7
:101B700020602889A0601C48844201D1002003E035
:101B80001A48844203D10220FFF7B6FB07462068BB
:101B900003218903084023D001218903401A21D061
:101BA000884200D10926696814204143F80038189A
:101BB0000191FEF7E1FA811BE87800900D1A0B20E5
:101BC00078430199FEF7D8FA811B0098081A002D76
:101BD00000DA0025002800DA002025616061FEBDE2
:101BE0000626E0E70826DEE7008004400090044077
:101BF000F8B5194D0646002422466821284600F013
:101C00003AF8164F28463946FFF762FF0028F9D008
:101C1000134F28463946FFF75BFF0028F9D01D27F0
:101C20007F04B4420DD239462846FFF751FF002801
:101C3000F9D00C48015D641CE4B2284600F019F8A4
:101C4000EFE72846FFF780FF0C21284600F00CF84C
:101C50000003F9D4F8BD0000009004400100180012
:101C600004003A004800002008B5401800900068C1
:101C700008BD8161704703689B07FCD4002A02D02D
:101C8000012292021143C161704710B50A20FFF78B
:101C9000C1FC0120FFF714FD012200210A20FFF7FB
:101CA000F9FC012000F012FB10BD0000F8B52A4835
:101CB00000F0BAFC294F7D220223D20028A129A0DE
:101CC000009700F0BDFB2B4D2B4C00262BA0FFF7FF
:101CD00055FB60606068002806D060680128F5D177
:101CE0002868401C286000E02E601B4800F09CFC27
:101CF0007D220223D2001AA125A0009700F0A0FBAC
:101D00002AA0FFF73BFBA060A068002809D0A068CC
:101D10000128F5D12868401C286003D001202E60DE
:101D2000F8BD2E600C4800F07FFC0523254A0CA16D
:101D30002548009700F084FB24A0FFF71FFBE0601C
:101D4000E0680028F8D1E068002802D12549012088
:101D500048700020F8BD000080C3C901992400002C
:101D60004F4B000041542B434D5154545354415256
:101D7000540D0A0020000020E80D00204D5154545D
:101D800020737461727420736572766963650000F4
:101D900041542B434D515454414343513D312C2226
:101DA0006368756E676E74220D0A00004D515454BD
:101DB0002061637175697265206120636C69656E6D
:101DC0007400000088130000E43B00004D5154549F
:101DD00020636F6E6E6563742073657276696365E8
:101DE000000000001C000020F8B5194DFF2204235C
:101DF000F53218A118A0009500F022FB1B4C1CA086
:101E0000FFF7BCFA206120690028F8D11E4800784D
:101E100001281CD11D4E032332460EA11CA00095A3
:101E200000F00EFB1EA0FFF7A9FA606160690028B0
:101E3000F8D10323324607A11FA0009500F000FB54
:101E400021A0FFF79BFAA061A0690028F8D1F8BD96
:101E5000992400004F4B000041542B434D515454E2
:101E6000444953433D312C36300D0A00E80D002023
:101E70004D51545420646973636F6E6E65637420B2
:101E8000736572766572000000000020B80B0000D8
:101E900041542B434D51545452454C3D310D0A0091
:101EA0004D5154542072656C65617365207468658A
:101EB00020636C69656E740041542B434D5154543A
:101EC00053544F500D0A00004D5154542073746FF9
:101ED000702073657276696365200000FFB5C3B03A
:101EE0001E4617464398FEF7A4F9024645A102A8EC
:101EF00000F0CEFD002502A90D54484C48A12760F2
:101F000066604C98A0604848449A019000F0C0FD7B
:101F1000464E0121F019890240188570444840A1BD
:101F20000746439A00F0B4FD4398FEF782F9801902
:101F300003218902401885703E4E7D220323D20082
:101F40003DA102A8009600F07BFA3C4D3CA0FFF7B3
:101F500015FAE861E8690028F8D13A463EA14248FE
:101F600000F096FD0323414A41A13846009600F057
:101F700067FA40A0FFF702FA2862286A0028F8D121
:101F800040A102A8226800F083FD7D273F010323C2
:101F90003A4629A102A8009600F052FA3FA102A8F1
:101FA00000F076FD43A0FFF7E9F96862686A00284F
:101FB000F8D103233A462EA10096019800F040FA8A
:101FC000404800F031FB40A0FFF7D8F9A862A86AAA
:101FD0000028F8D1A06800903C2342A102A86268C2
:101FE00000F056FD03233A4621A102A8009600F016
:101FF00027FA43A0FFF7C2F9E862E86A0028F8D19F
:1020000047B0F0BD41542B434D515454544F5049A7
:10201000433D312C25640D0A0000000054210020AE
:1020200025730D0A000000005415002054110020F3
:10203000541D0020992400003E000000E80D0020FF
:102040004D51545420696E70757420746F706963BB
:10205000207075626C69630050756220746F7069DE
:10206000633A202573000000602100201027000043
:102070004F4B00004D51545420746F706963206EB3
:10208000616D650041542B434D5154545041594C9E
:102090004F41443D312C25640D0A00004D515454EC
:1020A00020696E70757420746F706963204F4B0DDA
:1020B0000A0000004D51545420696E7075742064FC
:1020C0006174610080C3C9014D5154542070756220
:1020D0006C697368206D657373616765206E616DEF
:1020E0006500000041542B434D5154545055423D1E
:1020F000312C25642C25642C25640D0A0000000079
:102100004D515454207075626C6973682061206D64
:1021100065737361676520746F207365727665728D
:102120000000000070B52A4CC2B005462948616025
:1021300000F07AFA2846FEF77CF8024626A101A8AC
:10214000636800F0A5FC2D482A462AA1064600F047
:102150009FFC2846FEF76DF829490122411800200E
:10216000D2028918887027494A78012A2DD14870EF
:10217000254D0523254A26A101A8009500F060F908
:10218000244C25A0FFF7FAF82063206B0028F8D133
:102190000323284A28A13046009500F051F927A0D2
:1021A000FFF7ECF86063606B0028F8D17D22032311
:1021B000D20021A128A0009500F042F92AA0FFF743
:1021C000DDF8A063A06B0028F8D142B070BD00001C
:1021D000542100200087930341542B434D51545404
:1021E000535542544F5049433D312C25642C2564AE
:1021F0000D0A000025730D0A00000000541900208C
:10220000541100201C00002099240000B80B00008D
:102210003E000000E80D00204D51545420696E70BE
:10222000757420746F70696320737562736372696B
:1022300062650000881300004F4B00004D5154545C
:102240002073756273637269626520746F7069636D
:10225000206E616D6500000041542B434D51545474
:102260005355423D310D0A004D515454207375624F
:102270007363726962652061206D65737361676560
:1022800020746F20736572766572000070470000DD
:102290000548064902E08A68272A03D0401EFAD181
:1022A000012070470020704700366E0100A10640F3
:1022B000054801214160090342688A43FCD1016855
:1022C0000029FCD17047000000A1064070B5134AF8
:1022D000116B4906CB0F116B402421431163104948
:1022E0004D688026B5434D604D680826B5434D6066
:1022F0000C490E6904252E430E61002B02D1136B8D
:10230000A3431363002804D030BF0869A8430861C1
:1023100070BD40BF20BF20BFF7E70000008008402D
:1023200000A1064000ED00E07047000003498A6804
:1023300002239A43400002438A60704700A006408F
:1023400005490028886802D00122104301E04008B6
:10235000400088607047000000A0064010B50020D3
:10236000402201230146FEF7E1FFFFF791FF00281D
:1023700000D0FEE7FFF79CFF002000F039F80120B5
:1023800000F020F81020FEF757FF0028FAD00120B7
:10239000FFF7CCFF0F20000200F03AF80020C04306
:1023A00000F030F80120FFF7CBFF10BD01480068B6
:1023B0007047000000A006400148C068C0B27047E6
:1023C00000A00640084A082300280849906805D064
:1023D000184390608868C006FCD5704798439060A9
:1023E0008868C006FCD4704700A006400080084002
:1023F00003498A6820239A43400102438A60704758
:1024000000A00640014948607047000000A0064057
:10241000034A91680F231B0299430143916070475F
:1024200000A00640044A0029116901D0014300E0E0
:10243000814311617047000000A006407047000012
:10244000F8B50F46044601211D461646C9020F483D
:10245000FDF7C3FE21460D48FDF7F2FE2046FDF7CD
:10246000E8FE0B4C20603946201DFDF7E9FE2046B2
:10247000203005700698A66160620020E061054981
:102480000320087000F01CF8F8BD00009400002044
:1024900094080020280000200749087001220749FD
:1024A000002805D0012801D0022800D18A71704788
:1024B0008A718A727047000028000020780000208E
:1024C00010B503480168034800F032FA10BD00005F
:1024D000940800209400002070B51348016864310E
:1024E0000160124CA069002812D0E16981420FD22C
:1024F0006431E16181420BD3081A25462035E06141
:102500002878002805D0FFF7DBFF2878401E2870C8
:1025100070BD0025A561626A002AF9D004A10120DE
:102520009047656270BD00001000002094080020F4
:1025300040404000F0B538491020C8603748016B72
:1025400040273943016336498A68272AFCD1416A0A
:10255000032292029143416241680122D202114357
:1025600041608168C908C907FBD04168C908C90032
:10257000C91C4160416B4907490F0329FAD1294B16
:102580001968C908C900491C19600026066241681B
:102590005C15A143416001689D15294301604168B4
:1025A0000822914341600168214301604168D201E2
:1025B0001143416081688908C907FBD0016BB943A9
:1025C00001630F21C905816181690122120711434D
:1025D00081610168A94301604168214341608168CC
:1025E0004908C907FBD01968C908C900C91C196086
:1025F00006624168C908C900491C4160416B49072E
:10260000490F0129FAD11868102108431860186889
:10261000090208431860F0BD0081084000800840AE
:1026200000A1064000020840034A93689168C91A55
:102630008142FBD3704700000060074010B50020C6
:102640000122120401230146FEF770FE00210C2036
:10265000FEF780FE044C00212046FEF7E0FD01213C
:102660002046FEF7D3FD10BD00600740F8B54021BD
:102670000F060025384600F07CF8002804D04021E1
:10268000384600F069F801252021384600F071F83D
:102690000F4EF41DFF34FA34002801D1002D16D05E
:1026A000751E0221384600F05BF800280FD038462E
:1026B00000F0C6F8216870542068401C2060415D1D
:1026C0000A29EED100213154FFF79CF8E9E7F8BD63
:1026D000240E0020F8B51C4E00274021304600F0A3
:1026E00048F8002804D04021304600F035F8012792
:1026F0002021304600F03DF80146144A1448851860
:10270000032292028418002916D1002F14D1F8BD9B
:10271000304600F095F8E16A4855E16A0D48491CD9
:10272000E162085C0A2807D10020485509490120C8
:1027300008390872FEF7B2FC0221304600F010F8AA
:102740000028E5D1F8BD0000000004402908000081
:1027500094000020BC08002002690A400261704712
:102760008068012903D0000E0007000F7047000C9D
:10277000FAE70069084000D00120704770B50446B0
:102780000D46C8888988626808432989224B1A4007
:10279000114308436989084360600120800784422F
:1027A00006D11820FEF7A8FD2968FDF7E5FC606258
:1027B0001A48844206D11A20FEF79EFD2968FDF7CB
:1027C000DBFC60621648844206D11C20FEF794FDB3
:1027D0002968FDF7D1FC60621248844206D11E20B0
:1027E000FEF78AFD2968FDF7C7FC60620E48844247
:1027F00006D10820FEF780FD2968FDF7BDFC606268
:102800000A48844206D10A20FEF776FD2968FDF7C2
:10281000B3FC606270BD0000FCE0FFFF00000440FC
:102820000010004000100440002000400020044040
:10283000002AC26801D00A4300E08A43C2607047A0
:10284000006880B27047016070474269D209D201C6
:102850000A4380210A434261704710B583684900EA
:1028600030248C40A3438A401343836010BD10235F
:102870008B404168002A01D0194300E09943416030
:10288000704700003EB500240120212100044902C8
:1028900001232246FEF74AFD002220212148FEF7AF
:1028A0008FFF062210210020FEF7CCFB06222021FC
:1028B0000020FEF7C7FBE1204002FF2500900194B5
:1028C0000135029468468580C48004814481164C99
:1028D00069462046FFF752FF144AA1011160012208
:1028E00011462046FFF7A4FF012229462046FFF7A4
:1028F0009FFF202201212046FFF7AFFF1022002179
:102900002046FFF7AAFF7F212046FFF79EFF012206
:1029100000212046FFF7ABFF012211462046FFF7BA
:10292000A6FF3EBD00000B400000044000E100E0B7
:1029300070B5A0B000226B4603E004789C54401CA4
:10294000521C8A42F9D30F4E0F4D336029600F4C51
:1029500012E030680178401C30602046FFF773FFBA
:102960002868401E28602868002805D001212046DC
:10297000FFF7F6FE0828ECD128680028F6D120B031
:1029800070BD00002C00002030000020000004403A
:102990003EB5012000240004412105120902012353
:1029A0002246FEF7C3FC002208212148FEF708FF5B
:1029B000062204210020FEF745FB06220821002004
:1029C000FEF740FB4B20C001009001940294684642
:1029D0008580C48004814481AC0569462046FFF7A8
:1029E000CDFE144AE1111160012211462046FFF785
:1029F0001FFF012229462046FFF71AFF202201214E
:102A00002046FFF72AFF102200212046FFF725FF6E
:102A10007F212046FFF719FF012200212046FFF702
:102A200026FF002201212046FFF721FF3EBD0000C6
:102A300000000B4080E100E01CB500220092012163
:102A40006B460192195418784904C007C00B88439B
:102A50005978C907890B084301218904884399786B
:102A6000C907490B08430121C9048843D978C9071C
:102A7000090B084301210905884319790123C90776
:102A8000C90A084301218903FEF750FC1CBD000060
:102A90000FB410B504A9074B02AA039800F004F97B
:102AA000044602A9002000F09BFC204610BC08BC94
:102AB00004B01847E13300002021020C01D010219E
:102AC0001046020A01D010460839020901D010460A
:102AD000091F820801D01046891E420801D0881EB5
:102AE0007047081A704730B47446641E2578641C19
:102AF000AB4200D21D46635D5B00E31830BC184753
:102B000000487047740000200148006870470000CA
:102B10007400002002E008C8121F08C1002AFAD180
:102B200070477047002001E001C1121F002AFBD14D
:102B300070470000014908607047000074000020E1
:102B4000F0B51FB484B007980699020D014314D064
:102B50004A484B491018484305140F9801280E980D
:102B60001CD0281A401C0024464E4749009401916D
:102B70000290002814DA474227E00F98012443A36B
:102B8000012808D0002104980F9A84600360C26075
:102B9000416009B0F0BD0E98C143F4E74042E2E75E
:102BA000074612E0F80707D02246334601990098FD
:102BB000FDF7F6FD01910090224633461046194676
:102BC000FDF7EEFD04460E467F10002FEAD1029875
:102BD000019B0028009A0799069802DAFDF7E0FDAC
:102BE00001E0FDF745FE04460E460022284BFDF7A6
:102BF000D7FE03D80020C043014607E00022254B42
:102C000020463146FDF71AFDFDF7AAFE102409E023
:102C1000002C0ADB0A220023FDF713FC059B30324F
:102C20001A55641E02460A43F2D11122641C059B08
:102C3000121B1C190F9B012B03D0012308430ED13B
:102C40000AE0084304D011200E9000200F9084E782
:102C50000E98151A6D1E0BE00E98824202DD0023BD
:102C60006D1C03E0824201DA00236D1E002BEED0C2
:102C700004980F998260C16030C08AE701FCFFFFB1
:102C8000104D0000000024400000F03F3000000024
:102C90000000F0430000E03F30380A2801D2012054
:102CA0007047002070470000FFB597B0064600252A
:102CB00018E2252877D100242746FD49049400E036
:102CC0000443761C32780120203A90400842F7D124
:102CD00030782A280ED0022230780146303909296E
:102CE00016D804990A235943303940181443761CE6
:102CF0000490F1E7189802C804911890002904DAAA
:102D00000120400304434842049002200443761CFF
:102D100030782E2814D1042004437078761C2A2899
:102D200009D11898761C80C8189009E00A214F43F1
:102D3000303FC719761C3078014630390929F5D95A
:102D400030786C2810D006DC4C281AD068280ED0B9
:102D50006A2817D104E0742813D07A2812D110E021
:102D60000120400504430CE00121090501E0032195
:102D700009050C437178814203D101200005241814
:102D8000761C761C3078119066280BD013DC5828FE
:102D90007DD009DC00287BD04528F6D04628F4D029
:102DA00047281AD1A5E118E0632835D0642870D0EF
:102DB000652812D19DE170286CD008DC6728F1D01D
:102DC00069287BD06E280DD06F2806D1BAE0732811
:102DD0002ED0752871D0782859D01A9A1999904711
:102DE0006D1C7EE16002400F022809D003280DD03F
:102DF0000428189801680DD00D60001D189070E12E
:102E00001898EA1701680D604A60F6E7189801689B
:102E10000D80F2E70D70F0E718986A46017811729C
:102E2000001D18900020507202A80090012005E0BB
:102E3000189802C8189000200091C04361070DD572
:102E4000002101E00199491C0191B94212DA814245
:102E5000F8DB009A515C0029F4D10BE0002101E07D
:102E60000199491C01918142FADB019A0099895C20
:102E70000029F5D1019904981A9B471A2146384632
:102E8000199A00F097FA0199401945180BE04FE0A4
:102E90002CE113E04EE0009800990078491C009165
:102EA0001A9A199990470198401E0190401CF2D13E
:102EB000214638461A9B199A10E137E00A20002172
:102EC000009001916002410F022907D0189A01CAAF
:102ED0001892C2179446032908D00AE01898C01D1A
:102EE000C108C90005C91891944607E000B2C2178D
:102EF0009446042902D140B2C1178C460022614693
:102F0000944506DA0A460021404291418C462D2123
:102F100002E0210504D52B216A461173012103E04B
:102F2000E10701D02021F7E7029155E00A200AE0ED
:102F3000102008E01020009000210420044301919B
:102F4000082703E008200021019100906002410F52
:102F5000022907D0189A01CA189200229446032920
:102F600008D008E01898C01DC108C90005C918910B
:102F7000944603E080B2042900D1C0B2002102913E
:102F8000210729D51199702906D0009A1021019B9B
:102F90004A401A4305D00EE040216A4611730121D0
:102FA00008E06146014306D030216A461173119949
:102FB000517302210291009A0821019B4A401A4351
:102FC0000AD16146014301D1610705D530216A4626
:102FD000117301217F1E02911199582904D035A146
:102FE0000E910DA90D910DE037A1F9E76146019B06
:102FF000009AFDF726FA0E9B8C469B5C0D9A521E9A
:103000000D92137061460143F0D10D9805A9081A7D
:1030100020300190600703D501200004844300E0C4
:1030200001270198874201DD381A00E0002001994C
:1030300000904118029809180498401A0490E0037F
:1030400006D421461A9B199A049800F0B3F9451941
:10305000002706E003A81A9AC05D199990476D1CD5
:103060007F1C02988742F5DBE0030CD521461A9BB2
:10307000199A049800F09EF9451904E01A9A302034
:10308000199990476D1C0099481E00900029F5DCA5
:1030900008E00D980D990078491C0D911A9A19991C
:1030A00090476D1C0199481E01900029F1DC63E1F5
:1030B000092801003031323334353637383961620E
:1030C00063646566000000003031323334353637D2
:1030D00038394142434445460000000000F05AF9A7
:1030E0004519761C3078002800D0E2E528461BB050
:1030F000F0BD600700D406271898C01DC108C9009C
:1031000048680A680831C30FDB071891190001D01D
:103110009CA108E0210501D59BA104E0E10701D0B5
:103120009AA100E09AA1430011985B0810916528CC
:103130000CD006DC452809D046281DD0472841D1AF
:1031400041E0662818D067283CD13CE00021112FCF
:1031500001DB112000E0781C0191009008A911A862
:10316000FFF7EEFC139905910021119A15927F1C2F
:1031700012980197009150E00120C00703900120B0
:10318000019008A9009711A8FFF7DAFC139A149987
:1031900005920022119B009212981593059A0192B4
:1031A000002901D0104602E0791C40180190381A1D
:1031B00001D5019804E04042401E0090781C019027
:1031C000C01B029043E0012F00DA01270021112FDC
:1031D00001DD112000E038460191009008A911A8F6
:1031E000FFF7AEFC13990591119A002112981592E0
:1031F0000091019721070CD40599B94201DB01998F
:1032000000E00191012904DD159A491E515C302925
:1032100006D0B84201DA011D05DA0121029115E05C
:103220000199491EEDE7002805DC0099411800913D
:103230000199091A03E0019A411C914200DD0191B4
:103240000099401A401C02900120C00703902007FB
:1032500006D402990198814202DB0020C04302900B
:1032600000206946C87707AF012103980337C907D3
:10327000884224D0022011902B201290039800281D
:103280000CDA404203902D20129007E00A210398A7
:10329000FCF772FF30317F1E039039701199481E80
:1032A00011900029F2DC03980028EFD1791E1298C2
:1032B00008703078202108404530BF1E387006A8BD
:1032C000C01BC01D039010980078002800D001207A
:1032D000019941180298C017091803980918049811
:1032E000401A401E0490E00306D421461A9B199A06
:1032F000049800F05FF8451910980078002803D072
:103300001A9A199990476D1CE00324D521461A9BFF
:10331000199A049800F04EF845191CE0009800280E
:1033200007DB00990598884203DD1598405C1999E0
:1033300001E0199930201A9A904700986D1C401CA2
:1033400000900298401E0290002804D11A9A2E2064
:10335000199990476D1C0199481E01900029DDDCE8
:1033600005E038781A9A7F1C199990476D1C0399CB
:10337000481E03900029F4DC21461A9B199A0498F0
:10338000ACE600002D0000002B0000002000000033
:1033900000000000F8B5044600251E4617468804C4
:1033A00004D405E039462020B0476D1C641EF9D5D1
:1033B0002846F8BDFFB50446002581B01E46C80367
:1033C00001D5302700E02027880404D505E03846E1
:1033D0000399B0476D1C641EF9D5284605B0F0BDB1
:1033E0000A68531C0B601070704730B5044683B0F8
:1033F000002000900190FFF787FB05460022214640
:103400006846FDF76AF82846FFF794FB0199009893
:1034100003B030BDF8B50024274601E0002E04D1EA
:103420001D480169009105690126012189021B4897
:10343000FEF7DBF918490028487009D001218902FC
:103440001648FEF7D2F9144900284870F6D1641CDA
:10345000114801690098081A114988420CD9002EB8
:103460000AD0042C16D90F48012184620A480F465D
:1034700041710846FEF7FCFA07480069FF21401B2E
:10348000F531884204D30120FEF70AFB02480569A2
:10349000002FC3D03846F8BD0000002000400B408C
:1034A000B80B00002410002070B505460120FEF77F
:1034B00007F901214802FEF7B5FFFEF777FF044642
:1034C000FEF774FFA042FBD0FEF770FF4019FEF735
:1034D00099FF0120FEF7FAFE70BD0000FFB505461A
:1034E00081B01E461846FCF7A4FE01463046FCF7A4
:1034F00074FE1F4900201F4A08601F4C10601F4ABD
:1035000020601F4F106011E0295C2C290DD1184A52
:103510001168491C1160029A914201D1421C22603B
:10352000039A914201D115490860401C3860284631
:10353000FCF77FFE014638688142E5D80F482168D4
:1035400000680C4A401A00231060184607E0216802
:10355000695C31542068401C20603868401C386029
:1035600011688842F3DB39680020735405B0F0BD60
:1035700034000020380000203C00002040000020E3
:1035800044000020FFB5044681B01E460D46184693
:10359000FCF74FFE01463046FCF71FFE1A4F002095
:1035A00038607860B860F8600EE0215C22290AD1AA
:1035B0003968491C3960A94201D1421CBA60039A9A
:1035C000914200D1F860401C38612046FCF731FE82
:1035D000014638698142E8D8B968F868401A002283
:1035E0003A617860104608E0B968615C3154B868A7
:1035F000401CB8603869401C386179688842F3DB48
:103600003254002005B0F0BD5800002008B500205D
:10361000FEF702FA0120FEF7FFF9FDF7D1FEFFF7F2
:103620000DF8FFF7B5F9FFF72DF9FEF797FEFDF757
:10363000FBFFFDF753FFFDF7F4FDFEF771F8FEF712
:1036400057FA00F0BBF90020FEF71EFABD4FBE4C42
:10365000BE48807F01280DD1BC48C07F002809D119
:10366000FFF7D8FE002802D00220B87002E0B87838
:1036700000287DD0FF210131B548FEF7BBF80025B9
:103680007D222B46D200B3A1B3A00095FEF7D8FE51
:10369000B448FEF7C9FF012676037D713146B24872
:1036A000FEF7A8F8B148FEF7BFFF3146AE48FEF777
:1036B00015F8A4491C318D70AD4E01220AE038790D
:1036C000002802D1386978623A7138697B6AC01A79
:1036D000B04202D888780028F1D08878002801D03C
:1036E000A44E22E08A703D717D220023D20099A170
:1036F00099A00095FEF7A4FEC1E79FA0FDF73EFE4E
:10370000A34908600868002808D008680128F4D197
:10371000386A401C3862012836D00FE03D62786973
:1037200001280AD09B48FEF77FFF03239A4A89A10C
:103730009A480096FEF784FEDFE77D61FEF7B6FA51
:1037400000289CD19648FEF76FFF94480021463030
:10375000FEF7E8FC9348FEF767FF7C4DA87F012841
:103760001FD01420F8600020F8700120C00500E090
:1037700092E08D49086001221146C001FFF777F8F9
:10378000207901280FD034E07D220023D20071A1DE
:1037900071A00095FEF754FE8448FEF745FF3D6298
:1037A0006DE7286ADEE7B878002822D0401EB8709E
:1037B000002501267C49F0052571803108602A46E4
:1037C0003146C001FFF753F831026148FDF786FF2B
:1037D0005D483030FCF72DFD02465B496F48002301
:1037E00030310C300095FEF779FB3E706C48FEF7E7
:1037F0001BFF6B4D2846FEF717FF207900280ED1DE
:10380000F878002803D1386978620120F8703869A7
:10381000796A401A6649884201D9012038702846E1
:10382000FEF702FF3878012803D04848807F00283F
:1038300002D1B86800280AD04448C17F01299FD12D
:10384000B9685C4E491CB9600021B9612BE0FEF7F4
:10385000CBFA4F48002501213D7049023C30FCF76E
:10386000BCFC25600020A562FEF702F97D22002342
:10387000D20038A138A00095FEF7E2FDF868FFF706
:1038800013FE3A48FEF7D0FE3048817F002900D170
:10389000DEE6C07F0028FBD1FEF7F7F9D8E62B481B
:1038A000C07F002812D02846FEF7BEFE0221304617
:1038B000FDF7A0FF2846FEF7B7FE02213046FDF7D0
:1038C0000DFFB869401CB8610328E8DB00201F4EDB
:1038D000B861F07F002812D03748FEF7A5FE02211C
:1038E0003448FDF787FF3448FEF79EFE0221314839
:1038F000FDF7F4FEB869401CB8610328E9DB00203D
:103900002C4DB861F07F002812D02548FEF78CFEC0
:1039100002212846FDF76EFF2148FEF785FE0221B1
:103920002846FDF7DBFEB869401CB8610328E9DBD7
:10393000B8680A2803D8F07F002800D020E70020CC
:10394000B8601DE70000002024100020C40C0020F7
:1039500000000B404F4B000041542B43504F460D8D
:103960000A0000000095BA0A00400B4080C3C9015C
:10397000A8610000992400004D51545420636865EB
:10398000636B20415420636F6D6D616E64000000B5
:10399000E80D002000B10819581B00002C3A000067
:1039A000808D5B000087930300E100E0001BB700FF
:1039B000C8AF000000600B4080A8120110B50021C4
:1039C0006B2000F023F80721682000F01FF8002189
:1039D000372000F01BF801211C2000F017F801210E
:1039E0001F2000F013F80221202000F00FF815210D
:1039F000692000F00BF84021382000F007F8024859
:103A0000FEF712FE10BD000080CBA40010B5054AE1
:103A1000107051700220FEF7EBF80348FEF704FE29
:103A200010BD000048000020C027090041542B436E
:103A3000455245473F0D0A006D65737361676573B5
:103A40002F62626161646433642D306136642D34A9
:103A50003362332D383564622D6462343633383145
:103A600064323931342F61747472696275746574AB
:103A700073006D657373616765732F626261616462
:103A80006433642D306136642D343362332D383520
:103A900064622D6462343633383164323931342F04
:103AA00068743332000000000400010101010102CA
:103AB000040101010C0F020008004000800000100A
:103AC0000080040000000B4000200B4000400B4031
:103AD00000600B4000800B4000000000000004402C
:103AE00000001000060000002000060000404040DA
:103AF00040404040404041414141414040404040C1
:103B0000404040404040404040404040400502026C
:103B1000020202020202020202020202022020202B
:103B20002020202020202002020202020202909087
:103B30009090909010101010101010101010101085
:103B400010101010101010100202020202028888D9
:103B500088888888080808080808080808080808E5
:103B600008080808080808080202020240000000CD
:103B7000ED3A00007B22737461747573223A20223F
:103B80002564222C226C61746874223A20222566F6
:103B9000222C226C6F6E6874223A20222566222C19
:103BA0002273706565646874223A202225302E32B3
:103BB00066222C2274696D656874223A202225736E
:103BC000222C22646174656874223A2022257322B3
:103BD0002C20226465746563746874223A2022255F
:103BE00064227D0041542B434D515454434F4E4E5B
:103BF0004543543D312C227463703A2F2F313136B6
:103C00002E3130312E3132322E3139303A3138388E
:103C100033222C36302C312C227A565249774831B7
:103C20006E7669756164614E6A5242466A553943DF
:103C3000554C595A723172316C222C2252304265E5
:103C4000524F32366555436438764C4D34523447C2
:103C500057476535573269364A786A38220D0A0067
:103C6000803C00000000002078000000142B0000C1
:103C7000F83C00007800002030260000242B0000D3
:103C80000000010000000000000000000000000033
:103C90000000000000000000000000000000000024
:103CA0000000000000000000000000000000000014
:103CB0000000000000000000000000000000000004
:103CC00000000000000000000000000000000000F4
:103CD00000000000008793030000000000000000C7
:103CE00000000000000000000000000000000000D4
:083CF0000000000000000000CC
:04000005000000C136
:00000001FF
